:020000040800F2
:10000000F02C00202102000825220008451C0008D1
:10001000D5210008A70400087F2A0008000000007E
:10002000000000000000000000000000890100083E
:100030002106000800000000CD0100081F2600086E
:100040003B0200083B0200083B0200083B0200089C
:100050003B0200083B0200083B0200083B0200088C
:100060003B0200083B0200083B0200083B0200087C
:100070003B0200083B0200083B0200083B0200086C
:100080003B0200083B0200083B0200083B0200085C
:100090003B0200083B0200083B0200083B0200084C
:1000A0003B0200083B0200083B0200083B0200083C
:1000B0003B0200083B020008992600083B020008AA
:1000C0003B0200083B0200083B0200083B0200081C
:1000D0003B0200083B0200083B0200083B0200080C
:1000E0003B0200083B0200083B02000800F002F857
:1000F00000F03AF80AA090E8000C82448344AAF188
:100100000107DA4501D100F02FF8AFF2090EBAE885
:100110000F0013F0010F18BFFB1A43F0010318473B
:10012000E04C0000004D0000103A24BF78C878C1B0
:10013000FAD8520724BF30C830C144BF04680C60ED
:10014000704700000023002400250026103A28BF35
:1001500078C1FBD8520728BF30C148BF0B60704739
:100160001FB51FBD10B510BD00F064F91146FFF7B3
:10017000F7FF02F0D3FC00F082F903B4FFF7F2FFBF
:1001800003BC00F089F90000224B19680868B0E848
:10019000F00F80F30988BFF36F8F4FF0000080F3FA
:1001A00011884EF00D0E70470000000006480068F0
:1001B000006880F3088862B661B6BFF34F8FBFF363
:1001C0006F8F00DF00BF00BF08ED00E0EFF3098094
:1001D000BFF36F8F0F4B1A6820E9F00F106008B55E
:1001E0004FF0500080F31188BFF34F8FBFF36F8F34
:1001F00003F0FAFB4FF0000080F31188BDE80840DF
:1002000019680868B0E8F00F80F30988BFF36F8FB2
:10021000704700BF20000020EFF30580704700000A
:100220000948804709480047FEE7FEE7FEE7FEE78A
:10023000FEE7FEE7FEE7FEE7FEE7FEE704480549C6
:10024000054A064B7047000097260008ED0000089D
:10025000F0260020F02C0020F0280020F0280020BC
:1002600010B5431C02E010F8011B71B18107FAD1EF
:100270004FF0013202C88C1A8C4314EAC211F9D033
:10028000C01A0A0603D0C01E10BDC01A10BD0A0451
:1002900001D0801E10BD0902FCD0401E10BD032AF3
:1002A00040F2308010F0030C00F0158011F8013B93
:1002B000BCF1020F624498BF11F801CB00F8013B7A
:1002C00038BF11F8013BA2F1040298BF00F801CB3E
:1002D00038BF00F8013B11F0030300F05780083AE3
:1002E000C0F0088051F8043B083A51F804CBA0E86C
:1002F0000810F5E7121D5CBF51F8043B40F8043BC1
:10030000AFF30080D20724BF11F8013B11F801CBF5
:1003100048BF11F8012B24BF00F8013B00F801CBC6
:1003200048BF00F8012B704702F0FF0343EA0322A5
:1003300042EA024200F05EB84FF0000200B51346F8
:1003400094469646203922BFA0E80C50A0E80C50F5
:10035000B1F12001BFF4F7AF090728BFA0E80C50A6
:1003600048BF0CC05DF804EB890028BF40F8042B9F
:1003700008BF704748BF20F8022B11F0804F18BF0C
:1003800000F8012B704770477047704710B5203A4E
:10039000C0F00B80B1E81850203AA0E81850B1E83E
:1003A0001850A0E81850BFF4F5AF5FEA027C24BFF4
:1003B000B1E81850A0E8185044BF18C918C0BDE8EB
:1003C00010405FEA827C24BF51F8043B40F8043BB4
:1003D00008BF7047D20728BF31F8023B48BF11F869
:1003E000012B28BF20F8023B48BF00F8012B7047C3
:1003F0004FF000020429C0F0128010F0030C3FF40B
:100400009DAFCCF1040CBCF1020F18BF00F8012B1A
:10041000A8BF20F8022BA1EB0C01FFF78FBF5FEA0A
:10042000C17C24BF00F8012B00F8012B48BF00F865
:10043000012B7047754600F02BF8AE460500694663
:10044000534620F00700854618B020B5FFF7F6FEAA
:10045000BDE820404FF000064FF000074FF00008C5
:100460004FF0000B21F00701AC46ACE8C009ACE846
:10047000C009ACE8C009ACE8C0098D46704710B5AA
:100480000446AFF300802046BDE81040FFF775BE7C
:10049000004870479026002001491820ABBEFEE7B7
:1004A000260002007047FEE702480021006801F0C4
:1004B000CBBA0000A800002002480021006801F02B
:1004C00075BA0000A800002010B5FFF7F5FFC8209E
:1004D00003F0D6F9FFF7E8FFBDE81040C82003F0AD
:1004E000CFB900002DE9F0410024DFF8488025460F
:1004F000671E4FF47A763146012002F0C1FA80B9C6
:10050000282000F09BF864002021404600F0F8F914
:10051000012801D144F001043146002002F0B0FA74
:1005200010B13846BDE8F0816D1C082DE3DB204694
:10053000F8E70000000801402DE9F04782468946AF
:10054000002000F0B3F8142000F06BF8012000F058
:10055000ADF83C2000F072F800F056F84FF0FF378D
:1005600030BB4FF47A742146012002F089FAF8B9C1
:100570002146002002F084FAD0B9FFF7B3FF054608
:10058000FFF7B0FF8046FFF7ADFF0446FFF7AAFF75
:100590000646FFF7A7FF05EB0801214431448142DD
:1005A00006D1C9F800500020CAF80040BDE8F08725
:1005B0003846FBE7002486B001254FF4FA6600BFF9
:1005C00003F00AFA01A96846FFF7B6FF074603F0F1
:1005D00023FF4FB1049500F00DF802A800F04CF88D
:1005E000304603F04DF9EBE7009802900198CDE911
:1005F0000304F2E710B5012000F058F8BDE8104000
:100600004FF4FA6000F00DB810B52021034800F057
:1006100077F9012800D0002010BD0000000801403B
:10062000704770B5054600244FF47A7603E03046F3
:1006300000F004F8641CAC42F9DB70BD30B50D4924
:1006400000220B68D96A41434FF47A70B1FBF0F491
:10065000596A586A8142FCD0884202D9411A0A4438
:1006600003E0DD6A411A11446A180146A242F0D340
:1006700030BD0000040100202DE9F04107460024B0
:10068000084E094D08E000BF002356F824001A4622
:10069000394603F0DDFA641C28688442F4DBBDE8C7
:1006A000F081000068260020A0000020044B08B163
:1006B000012200E000222021184600F02EB900009F
:1006C0000008014010B501F07DFCFFF7EDFEBDE82C
:1006D000104001F02BBF0000074810B50023032293
:1006E0000221006803F0F2FC01F074FCFFF7ECFE5D
:1006F000BDE8104001F042BF08000020074810B5D7
:10070000032200231146006803F0E0FC01F052FCD4
:10071000FFF7D2FEBDE8104001F018BF080000202E
:100720002DE9F84FDFF8B8910024A9F1040B234616
:100730000F2709F1040AABF1040EC9E00125A54019
:100740002A40AA427DD1674ED1F804C0ACEB06081E
:10075000B44532D014DCBCF1030F3AD009DCBCF153
:10076000000F2AD0BCF1010F1CD0BCF1020F31D117
:100770001DE0BCF1110F17D0BCF1120F2AD119E006
:10078000B8F5881F19D006DCB8F5803F15D0B8F54C
:10079000801F1FD111E0B8F5001F0ED0B8F5041F5F
:1007A00018D10AE0CB6815E0CB681B1D12E0CB68BE
:1007B00008330FE0CB680C330CE08B682BB1012BB6
:1007C0004FF0080303D0456104E0042302E0056113
:1007D00000E00023FF2A01D8064601E000F10406EC
:1007E0004FEA840501D9A5F12005D6F8008007FA63
:1007F00005FC28EA0C0803FA05F548EA0508C6F8DE
:1008000000804D68ED0062D5374DAE6946F00106B7
:10081000AE61AD6924F0030605F001050095334D86
:1008200006EB050CDCF80850A607360F07FA06F8A9
:1008300025EA0805DFF8B880404503D14FF00008ED
:1008400017E044E0DFF8AC80404502D14FF00108EA
:100850000FE0DFF8A480404502D14FF0020808E025
:10086000DFF89880404502D14FF0030801E04FF0D7
:10087000040808FA06F848EA0508CCF808804D682C
:10088000D9F80060ED024D4601D5164300E09643CD
:100890002E604D68DAF80060AD02554601D516436A
:1008A00000E096432E604D68DBF80060AD035D46C6
:1008B00001D5164300E096432E604D68DEF80060D7
:1008C000ED03754601D5164300E096432E60641C87
:1008D0000D682A46E5407FF431AFBDE8F88F00008F
:1008E0000804014000001110001002400000014007
:1008F00000080140000C01400010014000140140BC
:100900008068084000D001207047C26821EA0203D5
:100910000A4043EA0241016170470AB10161704730
:100920000904FBE7014880687047000010000020C0
:1009300070B5040025D094F83D00002520B984F856
:100940003C50204600F0E6F9242084F83D00206861
:10095000016821F0010101602068016841F4004153
:1009600001602068016821F40041016000F080FB13
:100970004D4A6168914201D84C4900E04C49884297
:1009800001D2012070BD4B492368B0FBF1F15E68D4
:1009900026F03F060E435E606368934206D94FF42B
:1009A000967359434FF47A73B1FBF3F12368491CF2
:1009B0001E6A26F03F06314319626168914210D8E1
:1009C0004900401EB0FBF1F2521CC2F30B02042A94
:1009D00001D2042022E0B0FBF1F0401CC0F30B0078
:1009E0001CE0A268F2B301EBC10303EB0116431E46
:1009F000B3FBF6F35B1C43F480431B0549D092B371
:100A000001EBC10202EB0111401EB0FBF1F0401CF2
:100A1000C0F30B0040F4804040F400402168CA69F4
:100A20004CF6FF739A431043C861D4E907100143A1
:100A30002068026822F0C00211430160D4E903017A
:100A400001432068826848F2FF339A431143816072
:100A5000D4E9050108432168CA6822F0FF02104367
:100A6000C86001E00EE016E02068016841F0010175
:100A700001602564202084F83D00256384F83E5001
:100A8000002070BD01EB4106431EB3FBF6F35B1C77
:100A9000B3E70120C2E701EB4101401EB0FBF1F0DA
:100AA000401CC0F30B00B7E7A086010080841E0045
:100AB00000093D0040420F002DE9F84F1F469046C7
:100AC0008A460446DDF82890FFF72CFF054694F887
:100AD0003D0020287FD1192301224049204600955E
:100AE00001F096F9002876D194F83C00012872D0E4
:100AF000012084F83C0020680168C90703D101681F
:100B000041F0010101602068016821F40061016089
:100B1000212084F83D00102084F83E000026266441
:100B2000C4F824806785608D20852D48E0622B46BF
:100B30004A465146204601F09DF890B92068416927
:100B40008069009036E02A464946204601F006FAC0
:100B500050B1206C042804D12068016841F4007170
:100B600001600120BDE8F88F606A216800780861A3
:100B7000606A401C6062618D491E6185218D491E3D
:100B800089B2218522685369DB435B070BD451B1DD
:100B900000781061606A401C6062608D401E608554
:100BA000208D401E20852A464946204601F004F942
:100BB0000028CED1208D0028C5D154F83D0B016806
:100BC00041F400710160202004F81E09E677667781
:100BD0000020C7E7FFE70220C4E700000200100082
:100BE0000000FFFF2DE9FF4F83B09A46DDE9119722
:100BF00093460446DDF84080FFF794FE054694F8DE
:100C00003D0020287FD1192301224049204600952C
:100C100001F0FEF8002876D194F83C00012872D04B
:100C2000012084F83C0020680168C90703D10168ED
:100C300041F0010101602068016821F40061016058
:100C4000212084F83D00402084F83E0000262664E0
:100C5000C4F82480A4F82A90608D20852C48E06296
:100C6000CDE9007553465A462046049901F050F8E4
:100C700070B930E02A463946204601F06FF958B184
:100C8000206C042804D12068016841F400710160DF
:100C9000012007B0BDE8F08F606A21680078086124
:100CA000606A401C6062218D491E89B22185628D77
:100CB000521E628522685369DB435B070BD469B11E
:100CC00000781061606A401C6062208D401E2085A3
:100CD000608D401E6085208D0028CBD12A46394684
:100CE000204601F069F80028CAD154F83D0B01688C
:100CF00041F400710160202004F81E09E677667750
:100D00000020C6E7FFE70220C3E700000200100052
:100D10000000FFFF10B586B0002100910191029103
:100D2000039100680F4988421AD10F4CA06940F026
:100D30000800A061A069694600F008000490C02086
:100D4000009012200190032003900848FFF7E8FC70
:100D5000E06940F40010E061E06900F400100490E4
:100D600006B010BD0054004000100240000C0140CD
:100D700002488168027811448160704710000020A9
:100D8000074810B5016841F010010160032000F030
:100D9000A7F80F2000F006F800F050F8002010BD72
:100DA0000020024030B505461F4887B0C16941F0B8
:100DB0000401C161C06906A900F00400009001A807
:100DC00000F036F90498B0B100F052F9400017492C
:100DD000174AB0FBF1F11748491E0260416040F22A
:100DE000E7320021C0E903218160816100F04CFB02
:100DF000040003D015E000F03BF9E8E70D4800F0EF
:100E0000B7FB04000DD11E2000F03CF8102D07D2D6
:100E1000002229461E2000F043F80748056000E044
:100E2000012407B0204630BD0010024040420F00B0
:100E300000080040DC010020140000200F4808B525
:100E4000816941F001018161816901F00101009135
:100E5000C16941F08051C161C069002200F0805039
:100E600000900F21901E00F01BF80548416821F00A
:100E7000E06141F00071416008BD000000100240D7
:100E800000000140002809DB00F01F020121914011
:100E90004009800000F1E020C0F800117047000018
:100EA000F0B40E4B1B680C46C3F30223C3F10705D5
:100EB000042D00D90425191D072901D2002300E0C3
:100EC000DB1E012606FA05F1491E214099409E408D
:100ED000761E16403143F0BC01F010BE0CED00E070
:100EE000064900F0070208684FF6FF03184040EA81
:100EF0000220034A10430860704700000CED00E038
:100F00000000FA052DE9F0470F46050061D0434E79
:100F1000306800F00700B84209D2306820F00700BE
:100F200038433060306800F00700B84251D128687B
:100F30003B4C810712D5400703D5606840F4E06060
:100F400060602878000703D5606840F460506060F6
:100F50006068A96820F0F000084360602878C00746
:100F600028D06868012810D02168022810D089078D
:100F700000292EDA616821F0030101436160FFF767
:100F8000D1FC804641F288390DE021688903EFE702
:100F90008901EDE7FFF7C6FCA0EB0801494502D93E
:100FA0000320BDE8F0876068696800F00C00B0EBD2
:100FB000810FEFD1306800F00700B8420BD93068DC
:100FC00020F0070038433060306800F00700B84276
:100FD00001D00120E5E72878400705D56068E96879
:100FE00020F4E060084360602878000706D5606858
:100FF000296920F4605040EAC100606000F058F8B0
:101000006168084AC1F30311515CC8400649086091
:1010100006480068FFF7C6FE0020C2E70020024035
:1010200000100240DA4500081C00002014000020D7
:101030000F2202600C4A536803F0030343605368B5
:1010400003F0F0038360536803F4E063C360526805
:101050004FF4E06303EAD20202610448006800F042
:1010600007000860704700000010024000200240A6
:101070000448054900684968044AC1F30221515CEB
:10108000C84070471C00002000100240EA450008DC
:101090000448054900684968044AC1F3C221515C0B
:1010A000C84070471C00002000100240EA450008BC
:1010B0000E4A51680E4801F00C03042B11D0082B86
:1010C0000FD10C48C1F38343C903C05C0AD55168F2
:1010D000084AC1F34041921E515C054A5043B0FB9F
:1010E000F1F0704704494843704700000010024087
:1010F00000127A00CA45000800093D002DE9F84FAA
:10110000040070D02078C04DC00749D06868C0F393
:101110008100012807D06868C0F38100022809D146
:101120006868C00306D52868800339D56068002840
:10113000E7D035E06068B0F5803F0BD010B1B0F576
:10114000A02F11D0286820F480302860286820F46F
:10115000802002E0286840F480302860606890B108
:10116000FFF7E0FB06460AE0286840F4802028608C
:10117000F0E700BFFFF7D6FB801B642873D8286810
:101180008003F7D50CE0FFF7CDFB064605E000BF76
:10119000FFF7C8FB801B6428F0D828688003F7D4C9
:1011A00020789A4E80074FF001094FF0000839D59A
:1011B000686810F00C0F07D06868C0F3810002283F
:1011C00009D16868C00306D42868800714D520694F
:1011D000012808D110E02069B0B1C6F80090FFF7EF
:1011E000A1FB074605E00AE1FFF79CFBC01B0228B4
:1011F000C4D828688007F7D52868616920F0F8000E
:1012000040EAC10028600DE0C6F80080FFF78AFBC5
:10121000074604E0FFF786FBC01B022823D8286896
:101220008007F7D4207800072CD57948A169D9B177
:10123000C0F80090FFF776FB074604E0FFF772FB6B
:10124000C01B02280FD8686A8007F7D571484FF491
:10125000FA510068B0FBF1F0009000BF0098411E09
:101260000091FAD20EE080E0C0F80080FFF75AFB50
:10127000074604E0FFF756FBC01B022875D8686AD2
:101280008007F7D42078400760D5E8690027C000C0
:1012900008D4E86940F08050E861E869012700F06F
:1012A000805000905C480168C90513D401688346EA
:1012B00041F480710160FFF735FB824606E000BF14
:1012C000FFF730FBA0EB0A0064284ED8DBF80000E3
:1012D000C005F5D5E06801280AD008B1052813D06B
:1012E000286A20F001002862286A20F0040002E049
:1012F000286A40F001002862E06841F2883B98B11A
:10130000FFF710FB82460BE0286A40F004002862D9
:10131000EEE700BFFFF706FBA0EB0A0159455AD8DC
:10132000286A8007F6D50CE0FFF7FCFA824605E054
:10133000FFF7F8FAA0EB0A0159454CD8286A800754
:10134000F6D41FB1E86920F08050E861E06988B305
:101350006968C1F38101022944D00228C6F860807F
:1013600004D0FFF7DFFA044638E034E0FFF7DAFA9A
:10137000074604E0FFF7D6FAC01B02282BD82868DE
:101380008001F7D4206AB0F5803F05D16868A16874
:1013900020F4003008436860D4E908010843696814
:1013A00021F4741108436860C6F86090FFF7BAFA38
:1013B000044606E025E000BFFFF7B4FA001B022850
:1013C00009D828688001F7D51BE000BFFFF7AAFA0B
:1013D000001B022802D90320BDE8F88F286880018D
:1013E000F4D40EE00128F7D06868226A00F4803156
:1013F000914204D1616A00F47010884201D001204A
:10140000EAE70020E8E70000001002400000424246
:10141000800442421C00002000700040704770476A
:1014200070B590F83C20012A26D0012480F83C4079
:10143000022280F83D2003685A689D6822F07006F9
:101440000A6832435A600D4B02689A4208D0B2F1E2
:10145000804F05D00A4B9A4202D00A4B9A4204D1DF
:10146000496825F080031943916080F83D400021D0
:1014700080F83C10084670BD022070BD002C014071
:10148000000400400008004010B5040003D094F8A8
:101490003D0010B107E0012010BD002084F83C00A1
:1014A000204600F01FF8022084F83D00211D20682E
:1014B00001F0F8F8012084F8460084F83E0084F832
:1014C0003F0084F8400084F8410084F8420084F82A
:1014D000430084F8440084F8450084F83D0000206F
:1014E00010BD000008B50C4A01680C48914207D1B4
:1014F000816941F400618161806900F4006009E064
:10150000B1F1804F07D1C16941F00101C161C069EA
:1015100000F00100009008BD002C014000100240C6
:1015200090F83D10012901D001207047022180F878
:101530003D1000680B49884208D0B0F1804F05D0BB
:101540000949884202D00949884204D1816801F0E2
:101550000701062903D0016841F001010160002064
:1015600070470000002C01400004004000080040CB
:1015700090F83D10012901D001207047022180F828
:101580003D100168CA6842F00102CA6000680B4958
:10159000884208D0B0F1804F05D00949884202D076
:1015A0000849884204D1816801F00701062903D067
:1015B000016841F00101016000207047002C0140EA
:1015C000000400400008004070B5044690F83C005C
:1015D0000025012817D0012684F83C60022084F8F9
:1015E0003D002068826822F0770222F47F42826008
:1015F0000868502838D00DDC20284FD005DC90B387
:10160000102811D14AE0022070BD302846D0402871
:101610000AD13BE060282FD070280DD0B0F5805F54
:1016200003D0B0F5005F12D0012584F83D600020A2
:1016300084F83C00284670BDCB68D1E901212068C0
:1016400001F079F82068816841F0770109E0CB6802
:10165000D1E90121206801F06EF82068816841F429
:1016600080418160E1E719E0CA684968206801F0BB
:1016700017F95021206806E0CA684968206801F01F
:1016800020F96021206801F060F8CEE7CA68496857
:10169000206801F005F940212068F4E7226801463E
:1016A0001046F0E770472DE9F04104460068C6682F
:1016B00005694FF00007A90713D5B10711D5F91E29
:1016C000016101202077206880698007204602D0D0
:1016D000FFF7E8FF04E000F0A3F8204600F064F90B
:1016E0002777680716D5700714D521686FF00400B6
:1016F0000861022020772068806910F4407F20462E
:1017000002D0FFF7CFFF04E000F08AF8204600F097
:101710004BF92777280715D5300713D521686FF0C7
:1017200008000861042020772068C06980072046EF
:1017300002D0FFF7B7FF04E000F072F8204600F097
:1017400033F92777E80616D5F00614D521686FF02F
:1017500010000861082020772068C06910F4407FDD
:10176000204602D0FFF79EFF04E000F059F8204623
:1017700000F01AF92777E80708D0F00706D02168AB
:101780006FF001000861204600F096F9280608D5A0
:10179000300606D521686FF0800008612046FFF70B
:1017A0003DFE680608D5700606D521686FF040003A
:1017B0000861204600F08AF9A8060AD5B00608D5C7
:1017C00021686FF0200008612046BDE8F041FFF776
:1017D00026BEBDE8F081000000B585B00021009173
:1017E0000191029103910068B0F1804F11D10A4834
:1017F000816941F0040181618069694600F004005B
:101800000490012000900220019003900348FEF70D
:1018100087FF05B000BD0000001002400008014035
:10182000704770B5044690F83C0000260D4601282C
:101830000FD0012084F83C006AB1042A1DD0082A88
:101840002FD00C2A3FD00126002084F83C003046DF
:1018500070BD022070BD206800F080FF20688169A3
:1018600041F0080181612068816921F004018161F2
:10187000206881692A69114311E0206800F096FF11
:101880002068816941F4006181612068816921F4E7
:1018900080618161206881692A6941EA0221816150
:1018A000D2E7206800F0AEFF2068C16941F008016E
:1018B000C1612068C16921F00401C1612068C1696A
:1018C0002A69114311E0206800F0C8FF2068C1694F
:1018D00041F40061C1612068C16921F48061C16186
:1018E0002068C1692A6941EA0221C161ACE710B5EB
:1018F0000446022084F83D002068016A41F211127A
:10190000114207D1016A9210114203D1016821F0FE
:1019100001010160204600F045F8002084F84600EF
:1019200084F83E0084F83F0084F8400084F84100C9
:1019300084F8420084F8430084F8440084F84500A9
:1019400084F83D0084F83C0010BD10B5040003D0BD
:1019500094F83D0010B107E0012010BD002084F88C
:101960003C00204600F01FF8022084F83D00211DB5
:10197000206800F097FE012084F8460084F83E00BD
:1019800084F83F0084F8400084F8410084F8420065
:1019900084F8430084F8440084F8450084F83D004E
:1019A000002010BD704770477047000010B5044616
:1019B000022249B104290ED0082913D094F841001D
:1019C000012816D0012010BD94F83E000128F9D15D
:1019D00084F83E200FE094F83F000128F2D184F80B
:1019E0003F2008E094F840000128EBD184F8402023
:1019F00001E084F841200122206800F08FFE0F49A9
:101A00002068884203D1426C42F40042426420685C
:101A1000884208D0B0F1804F05D00949884202D0F1
:101A20000849884204D1816801F00701062903D0E2
:101A3000016841F001010160002010BD002C01404F
:101A4000000400400008004030B504460D46006820
:101A5000002200F063FE174B41F2111120688A103A
:101A6000984209D1036A0B4206D1036A134203D19B
:101A7000436C23F4004343642068036A0B4206D19D
:101A8000016A114203D1016821F0010101600120C6
:101A90003DB1042D08D0082D09D084F84100002064
:101AA00030BD84F83E00FAE784F83F00F7E784F899
:101AB0004000F4E7002C014000680349884201D14E
:101AC000FFF756B97047000000080040704770B536
:101AD000040004D094F84100002510B106E0012074
:101AE00070BD84F84050204600F024F8242084F88B
:101AF00041002068C16821F40051C160204600F017
:101B000019FF2068016921F4904101612068416951
:101B100021F02A0141612068C16841F40051C1608F
:101B20006564202084F8410084F842006563002049
:101B300070BD000030B585B000240094019402947B
:101B4000039400681449884224D11448816941F4FF
:101B500080418161816901F480410491816941F092
:101B60000401816180690E4D00F0040004904FF47F
:101B700000700090022001900320039069462846DF
:101B8000FEF7CEFD2815CDE90004694628460294EB
:101B9000FEF7C6FD05B030BD003801400010024020
:101BA000000801402DE9F843044690F841009846AA
:101BB00016460D46202802D00220BDE8F88385B1E4
:101BC0007EB100206064212084F84100FEF7AAFE67
:101BD000A6848146E684A0682027B0F5805F02D005
:101BE00003E00120E9E7206910B12E4600250EE050
:101BF00000260CE08021204600F008FFA8B9C6B1FD
:101C000016F8010B21684860E08C401EE084E08CEF
:101C10004B464FF00002CDF800800028EAD14FF08B
:101C20004001204600F0F2FE40B184F841700320EC
:101C3000C3E735F8020BC0F30800E3E784F841700E
:101C40000020BAE7FEE701684A69D24352050FD483
:101C50006FF480624A61002140F8301F20224273F5
:101C60008173026942F0040202610173012070472E
:101C700000207047F8B50446C06A1E460D46174658
:101C8000082807D0012805D010F5803F02D0206B2E
:101C9000122804D12068016841F480710160134664
:101CA00000224FF001112046009600F0B1F840B13B
:101CB00020680068C00502D54FF40070206403203E
:101CC000F8BD2069B0F5804F0ED00620216800EAEB
:101CD000D51040F0F000086133463A460B492046E3
:101CE00000F0DEF878B902E005F0FE0000E0E8B2AE
:101CF00021680861054933463A46891F204600F0AD
:101D0000CFF80028DCD00120F8BD00000800010059
:101D10002DE9F843044600680D46DDE9089701689F
:101D20009846164641F4807101604B4600224FF000
:101D300001112046009700F06BF848B12068006858
:101D4000C00502D54FF4007020640320BDE8F8837D
:101D5000216805F0FE0008613B464A4615492046C9
:101D600000F09EF888B920684169806900903A4681
:101D70004946204600F0F2F848B1206C042804D10E
:101D80002068016841F4007101600120DEE7F5B2CE
:101D9000B8F1010F09D02168300A08613A46494676
:101DA000204600F0DBF80028E7D12068056100201C
:101DB000CCE700000200010070B516460D4604464F
:101DC0001EE02046FFF73FFF08B1012070BD681CF0
:101DD00016D0FEF7A7FD801BA84200D885B9206861
:101DE0004069C04340070BD5002044F8300F202144
:101DF0006173A073216941F0200121612073E4E740
:101E000020684069C0434007DBD4002070BD00005B
:101E10002DE9F047984617460D460446C1F307469C
:101E2000DDF820902AE000BFB8F1FF3F26D0FEF792
:101E300079FDA0EB0901414502D8B8F1000F1DD191
:101E40002068012E16D0806925EA00000004000CED
:101E500012D00020B84211D1002044F8300F2021C8
:101E60006173A073216941F0200121612073012079
:101E7000BDE8F0874069E7E70120EBE72068012E25
:101E80000AD0806925EA00000004000C06D000207A
:101E9000B842C9D00020EBE74069F3E70120F7E73B
:101EA0002DE9F047984616460D4604464FF00009C6
:101EB0004FF0200AC1F3074723E020684069C04380
:101EC000400515D42068016841F400710160216863
:101ED0006FF480604861C4F8309084F83DA084F8C5
:101EE0003E90216C41F00401216484F83C9021E093
:101EF000701C06D0FEF716FDA0EB0800B04203D818
:101F000016B1012F1FD021E02068012F15D0806964
:101F100025EA00000004000C18D000BF44F8309FF0
:101F200084F80DA084F80E90216941F02001216110
:101F300084F80C900120BDE8F087406925EA000094
:101F40000004000CEAD12068406901E02068806943
:101F500025EA00000004000CAFD1ECE770B516468E
:101F60000D4604461EE02046FFF76DFE08B1012035
:101F700070BD681C16D0FEF7D5FC801BA84200D8A7
:101F800085B920684069C04300060BD5002044F89D
:101F9000300F20216173A073216941F0200121617C
:101FA0002073E4E720684069C0430006DBD40020CA
:101FB00070BD000000224FF400510148FEF7ADBC97
:101FC00000100140012251030148FEF7A6BC0000A9
:101FD0000010014070B5084D4FF4005421462846CA
:101FE000FEF793FC4FF4FA7001F04AFC21462846B4
:101FF000BDE87040FEF789BC001001402DE9F047B4
:1020000086B000262D4800960196029603968169B7
:1020100041F010018161816901F010010491816931
:1020200041F020018161816901F020010491816901
:1020300041F004018161816901F004010491816929
:1020400041F0080181618069DFF8748000F00800C8
:102050004FF400540490002221464046FEF75DFCF8
:10206000DFF86090002220214846FEF756FCDFF89A
:1020700058A0002238215046FEF74FFC1127CDE929
:1020800000470124022569464046CDE90245FEF796
:1020900047FB2020CDE9000769464846CDE90245C7
:1020A000FEF73EFB382003958DE851006946504607
:1020B000FEF736FB06B0BDE8F087000000100240D6
:1020C0000010014000080140000C014010B586B02E
:1020D000002419480094019402940394049415492F
:1020E000059401604721C0E9011440F2E731C0E9DD
:1020F00003148021C0E90541FFF7C6F908B172B6A3
:10210000FEE74FF48050009069460B48FFF75CFAF9
:1021100008B172B6FEE7049404A907480594FFF7D6
:102120007FF908B172B6FEE70348FFF7F9F906B088
:1021300010BD0000002C01400401002010B58EB03D
:1021400000240794089409940A940B941C2168466F
:102150000C94FEF7F1F81E484FF0804101604721D2
:10216000C0E9011440F2E731C0E903148021816124
:10217000FFF78AF908B172B6FEE74FF48050079076
:1021800007A91348FFF720FA08B172B6FEE7104816
:10219000FFF7DBFB08B172B6FEE70B940BA90C4806
:1021A0000C94FFF73DF908B172B6FEE76020CDE967
:1021B000000402940022694605480494FFF731FBAD
:1021C00008B172B6FEE70248FFF706FB0EB010BD7D
:1021D0004C010020FEE7000008B54FF0FF354FF43A
:1021E0007A742B4628466A46194602F057F800983A
:1021F000022809D00328F4D104A000BF00F0F6FBA8
:10220000204601F03DFBECE703A0F7E744616E6771
:102210006572210A0D0000005761726E696E6721B8
:102220000A0D0000FEE700000EB51C4C4FF0FF3811
:1022300042466946206801F01BFE0298012801D041
:1022400020B127E0002116A2052021E0DDE900658C
:10225000002114A2084600F00AF90746C0B232462F
:10226000002100F0CBF8BF1CF8B210A2002100F052
:10227000FEF80FA20221002000F0F9F80646C0B2D5
:102280002A46022100F0BAF8B61CF0B20AA20221D6
:1022900000F0EDF8322001F0F3FAC9E70000002069
:1022A0006572720054656D3A000000005E00000027
:1022B00048756D3A00000000250000002DE9FC4142
:1022C00000254026DFF8388032270024E1B2E8B24A
:1022D00000F084F900208DF804608DF80500009767
:1022E000022301AA7821D8F80000FEF7E5FB641C60
:1022F000802CEBDB6D1C082DE7DBBDE8FC810000CA
:10230000A400002010B58D2000F036F8142000F055
:1023100033F83F24A82000F02FF8204600F02CF8D6
:102320000024D32000F028F8204600F025F84020B3
:1023300000F022F8A12000F01FF8C82000F01CF8DF
:10234000812000F019F8A42000F016F8A62000F073
:1023500013F88024D52000F00FF8204600F00CF888
:102360000224DA2000F008F8204600F005F8BDE865
:102370001040AF20AFF300801CB500218DF8041091
:102380008DF80500322000900348022301AA78212D
:102390000068FEF791FB1CBDA40000200EB53222A0
:1023A0008DE8070003480123402278210068FEF7EA
:1023B00019FC0EBDA400002070B515460C460F2870
:1023C00019D8072C17D8C600F1B2204600F006F93C
:1023D0000948082100EB05100546FFF7DFFF641CE4
:1023E000F1B2E0B200F0FAF805F10800BDE8704083
:1023F0000821FFF7D3BF70BDF24500082DE9FE4369
:1024000004464FF00000161E8846009001900546D5
:102410006F46029009D00FDA2046641CE4B22D22E8
:10242000FFF7CAFF764201200FE030222046FFF777
:10243000C3FF0120BDE8FE830A2196FBF1F201FBF8
:10244000126296FBF1F67A556D1C002EF4D14619F6
:1024500009E06D1E4146785D3030C2B22046641CF2
:10246000E4B2FFF7A9FF002DF3DC3046E2E72DE9E7
:10247000F0410F460446164600250BE02046641C3A
:10248000E4B23946FFF798FF0F2C02D90024BF1C95
:10249000FFB26D1C725D002AF0D12846BDE8F081C4
:1024A000044A11680A2904DA034B43F82100491C45
:1024B00011607047A0000020682600202DE9F0413F
:1024C00088B0884606461C216846FDF735FF154D45
:1024D0002868FFF70CFA28684FF08041002401605B
:1024E0004721C0E90114104F97FBF6F1491EC0E9DE
:1024F000031480218161FEF7C7FF6020009097FBE5
:10250000F6F0401E00FB08F0642190FBF1F0CDE9ED
:1025100001040494002269462868FFF782F908B094
:10252000BDE8F081A800002040420F0010B5064C25
:10253000012238212046FEF7F0F920460022BDE8AE
:1025400010402021FEF7E9B9000C014010B50A4CFB
:10255000012238212046FEF7E0F908212046FEF747
:10256000D4F94FF4FA7001F08BF92046BDE8104021
:102570000821FEF7CAB90000000C014010B50E4C4E
:10258000012238212046FEF7C8F908212046FEF72F
:10259000BCF920212046FEF7B8F94FF4FA7001F09B
:1025A0006FF908212046FEF7B0F92046BDE810403B
:1025B0002021FEF7AAB90000000C014010B504006C
:1025C00003D0012C01D0022C07D12020FFF7D4FE2C
:1025D0002046BDE81040FFF7CFBE10BD70B50446E1
:1025E0000D460220FFF7EAFF072C03D8B034E0B213
:1025F000FFF7C2FE0220FFF7E1FF7F2D0AD805F0AA
:102600000F00FFF7B9FE102000EB1510BDE8704079
:10261000FFF7B2BE70BD012000F034FBFBE710B540
:102620004FF0E020006901F0C1FD012803D0BDE8B2
:10263000104001F05FBA10BD30B58FB02821684658
:10264000FDF77AFE14210AA8FDF776FE01210804A1
:10265000CDE900100024029402250491CDE9075031
:102660004FF4E01009906846FEF748FD08B172B6D5
:10267000FEE70F20CDE90A054FF48060CDE90C405C
:1026800002210AA80E94FEF73DFC002801D072B684
:10269000FEE70FB030BD70470148FFF704B80000F7
:1026A000DC010020F0B50268194B1A4C1A4D4FF0AE
:1026B0008047984205D0B84203D0A04201D0A8423A
:1026C00003D122F070064A683243984205D0B842DE
:1026D00003D0A04201D0A84203D122F44074CA68BA
:1026E00022434C6922F08002224302608A68C2625F
:1026F0000A688262984201D109690163012141613E
:102700000169C90703D0016921F001010161F0BD30
:10271000002C0140000400400008004010B501F00A
:102720001F030121046A99408C430462016A9A40A4
:102730001143016210BD10B5846842EA032224F4FB
:102740007F440A432243826010BD826822F07002F7
:102750000A4342F0070181607047000030B5036A08
:10276000026A22F0010202624268846924F0730561
:102770000C682C4323F002058B682B430A4DA842BA
:102780000BD123F00805CB6822F440722B434D692E
:1027900023F0040315438A692A434260846149682F
:1027A0004163036230BD0000002C014030B5026A75
:1027B000036A23F010030362436884690D6824F4FC
:1027C000E64444EA05248D6822F0200242EA05121C
:1027D0000B4DA8420ED1CD6822F0800242EA0512CC
:1027E0004D6923F4406343EA85038D6922F040027A
:1027F00043EA85034360846149688163026230BDB6
:10280000002C014030B5036A026A22F48072026231
:102810004268C46923F4007324F073050C682C43E8
:102820008D6843EA05230C4DA8420ED1CD6823F4F0
:10283000006343EA05234D6922F4405242EA05123F
:102840008D6923F4806342EA05124260C4614968DD
:10285000C163036230BD0000002C014030B5046A42
:10286000026A22F4805202624268C3690D6823F44E
:10287000E64343EA05238D6824F4005444EA053412
:10288000064DA84204D14D6922F4804242EA8512E5
:102890004260C36149680164046230BD002C01409C
:1028A00010B5036A046A24F001040462846924F008
:1028B000F00444EA021423F00A020A43846102622B
:1028C00010BD10B5036A046A24F010040462846920
:1028D00023F0A00324F4704444EA023243EA0111D5
:1028E0008261016210BD01680C3151E8002F22F4B1
:1028F000907241E80023002BF5D10168143151E8B2
:10290000002F22F0010241E80023002BF5D1016BDA
:10291000012909D101680C3151E8002F22F0100281
:1029200041E80023002BF5D1202180F8421000213E
:102930000163704770B5044600680169E26821F4DC
:102940004051114301612169A0680843616908434E
:102950002168CA6841F20C639A430243CA60206846
:102960004169A26921F44071114341611E49206807
:10297000884202D1FEF78CFB01E0FEF779FB00EB09
:10298000C00101EB0012606864218000B2FBF0F32B
:10299000B3FBF1F36FF018067343B2FBF0F5B2FB33
:1029A000F0F605EB8305322303EB0515B5FBF1F5D6
:1029B000B6FBF1F605F0F00505EB0615B2FBF0F6F7
:1029C000B2FBF0F0B0FBF1F06FF01802504306EBF1
:1029D000800003EB0010B0FBF1F0216800F00F0065
:1029E0002844886070BD00000038014010B50446DE
:1029F000FDF736FC82B2044821464FF0FF330068F1
:102A0000BDE81040FFF7CEB8AC0000202DE9F84338
:102A1000984617460D460446089E24E0701C22D0B6
:102A2000FDF780FFA0EB0800B0421AD8CEB12068B5
:102A3000C168490717D5802D15D0402D13D00168E6
:102A4000C94309070FD4016800254068009020465B
:102A5000FFF749FF0820606484F840500120BDE87A
:102A6000F8830320FBE72068006835EA000004D003
:102A70000020B842D2D00020F1E70120F9E7FEE7BC
:102A800070B50C46054608E0FDF7BEFDA84201D131
:102A9000002070BD0120FDF7D1FD641EF4D24FF07F
:102AA000FF3070BD0EB5144C4FF0FF352A46694615
:102AB000206801F0DDF90298C8B9DDE900011E289F
:102AC00004DA502902DAFDF7FDFD10E0A0F11F0243
:102AD000042A03D3A1F15102092A02D2FDF7FCFD19
:102AE00005E0232801DC5A2901DDFDF707FE32202D
:102AF00000F0C6FEDAE70000040000200907090E16
:102B0000002804DB00F1E02080F80014704700F09A
:102B10000F0000F1E02080F8141D70471CB5FEF78F
:102B20002FF9FFF789FDFFF769FAFFF7CFFA3E4863
:102B30003C49002401603D49C0E901144FF4804143
:102B4000C0E9034144618461C4610462FDF7F0FEA1
:102B500008B172B6FEE7FFF7F1FA33483449E430C2
:102B600001604FF4E131C0E901140C21C460C0E9F7
:102B700004418461C461FEF7AAFF08B172B6FEE7A2
:102B8000FFF7C0FBFFF79AFBFDF734FD00220C2195
:102B90000A2000F0C5FF274D2860FFF781FC0022C6
:102BA0000C210A2000F0BCFF6860FFF779FCFFF7FA
:102BB00009FA012238212048FDF7AFFE01214FF428
:102BC0007A70FFF77BFC00F06BF81C4A00211C4870
:102BD00000F094F8E8601920CDE900040023802279
:102BE00018A11B4801F01AFA1825CDE9005400235A
:102BF000802218A11A4801F011FACDE900540023EF
:102C0000802218A11A4801F009FA0A480023083066
:102C1000CDE90050802217A1194801F0FFF900F01A
:102C200051F8FEE700540040B0000020A0860100EB
:102C30000038014000000020000C0140A4450008BD
:102C40001726000844485431315441534B000000CA
:102C5000B50500084F4C45445441534B000000005B
:102C6000292200085761726E696E675441534B0008
:102C7000A52A00084D795F554152545461736B0089
:102C8000D921000810B5EFF3058111B16FF00504EB
:102C900003E0002408B100F0F3FD204610BD000061
:102CA000EFF3058010B16FF005007047044801682C
:102CB00011B14FF0FF3070470121016000207047D3
:102CC0007000002010B5EFF3058010B16FF0050023
:102CD00010BD08480168012902D04FF0FF3010BD37
:102CE000054A002182F8141D0221016000F030FE27
:102CF000002010BD700000200BE000E02DE9FF4136
:102D00004FEA01034FF00005EFF30581039549BB3E
:102D100040B38027182100244AB3166806B1344610
:102D200096691EB13146761E382E02D21679F60704
:102D300003D0002004B0BDE8F081566906B1B708A1
:102D4000D2F808C0BCF1000F0DD0D5685C2D18D3A7
:102D500012693AB136B18DE806103A46214601F0C3
:102D60008AF903900DE0D6685EB912694AB903AAE0
:102D7000CDE90012BAB2214601F050F9012800D085
:102D800003950398D6E700002DE9F041134C0F4658
:102D90000546E6682068001D00F03EFC681C07D16F
:102DA00037B12168BDE8F0410D48091D00F084BC31
:102DB00020683544B5424560216805D2A06BBDE866
:102DC000F041091D00F060BC606B091D00F05CFC67
:102DD000A06A854200D2A562BDE8F08120000020F3
:102DE000140700202DE9F041054600F071FC2D4C40
:102DF000A068401CA06020682B4F10B1606930B300
:102E00002BE02560A068012827D1002606EB86006C
:102E100007EB800000F02AFC761C382EF6D32348FE
:102E200000F024FC2148143000F020FC1F4828301A
:102E300000F01CFC1D483C3000F018FC1B485030D2
:102E400000F014FC194860631430A06305E02068AA
:102E5000E96AC06A884200D82560606A401C6062E6
:102E60006864E86A2169884200D9206100EB80002B
:102E700007EB8000291D00F01FFC00F049FC606991
:102E800000280CD02068E96AC06A884207D2084945
:102E90004FF080500860BFF34F8FBFF36F8FBDE8D6
:102EA000F08100002000002064020020C406002001
:102EB00004ED00E038B500F00BFC104C2068C8B9F8
:102EC0000F4800F0D3FB0E48143000F0CFFB0C4845
:102ED000E060143020610A4B0020F03B009003F1C9
:102EE000500210210A2000F03CFE206010B105A124
:102EF00000F090FCBDE8384000F00ABC5C00002007
:102F000018080020546D72510000000030B4026CAB
:102F10000B46002A0BD0C1681144C1608468A142ED
:102F200001D30168C16030BC1846FDF7B8B930BCA8
:102F300070472DE9F041856B174604460026026C68
:102F400082B1C7B1E068FDF7AAF9E168206C091AFF
:102F5000E1602268914202D2A168081AE060022F63
:102F600016D017E02068A8B9A06801F0DDF9064680
:102F70000020A0600EE06068FDF791F9216C6068A8
:102F800008446060A168884204D32068606001E062
:102F900005B16D1E6D1CA5633046BDE8F08110B50E
:102FA000044690F8590058B101280CD002280FD0DF
:102FB000502080F31188BFF34F8FBFF36F8FFEE770
:102FC000206B00F0B9FB2046BDE8104000F0B4BB18
:102FD00010BD00000F4841F27071420705D0C01DBE
:102FE0000C4A20F00700821A891A0B4A0023014478
:102FF000C2E900030839183A21F0070111604B605B
:103000000B600B1AC0E9001393604FF0004053604F
:1030100050617047F80E00208C000020144E154CB3
:10302000A6F29C474FF08058DFF84C9012E000BFAA
:1030300000F04EFBF068C568281D00F0EDFAA068AE
:10304000401EA0606068401E606000F061FB284682
:10305000FFF7A5FF60680028EAD138680128F9D990
:10306000C9F80080BFF34F8FBFF36F8FF2E7000006
:10307000000700202000002004ED00E070B51D4690
:10308000049C51B1C4F80020C4E90F01012120467D
:1030900000F09AFD84F84C5070BD2460F4E7000005
:1030A0002DE9F05F8846DDE90B94154683469100D3
:1030B0009A460A9EA522206BFDF736F96FF00301B0
:1030C000206B01EB8501084420F00707780707D043
:1030D000502080F31188BFF34F8FBFF36F8FFEE74F
:1030E0000025B8F1000F0FD05FF00000221818F88B
:1030F000001082F8341018F8001011B1401C10288C
:10310000F4D384F8435001E084F83450382E00D3CF
:103110003726E662C4E91365201D00F0B2FA04F117
:10312000180000F0AEFA2461C6F138006462A061B4
:10313000656584F8585052465946384600F05AFAA8
:103140002060B9F1000F01D0C9F80040BDE8F09F40
:1031500030B5114900E011460A688242FBD34B6842
:103160005C18844203D140681844486008464368AC
:103170001C18944209D1084C183C2468A24209D07A
:1031800052681A4442600A6812680260814200D0A4
:10319000086030BD0460F9E78C00002070B50024A1
:1031A00041600B4D0061914206D8D11A826991426B
:1031B00006D2011D286907E09A4203D2994201D341
:1031C000012403E0011DE86800F05EFA204670BDAE
:1031D0005C00002010B5044600F07AFAA06B28B11C
:1031E0005FF0000400F094FA204610BD0124F9E7D6
:1031F00030B589B03C4D6EE00498002806DADDE970
:103200000601059A90470498002864DB069C6069D3
:1032100010B1201D00F000FA03A800F0D7F8024614
:1032200004980A2857D2DFE800F00505052D334A37
:1032300005052D3394F8280040F0010084F828009B
:103240000599A069059B01442046FFF7A7FF68B3D5
:10325000216A2046884794F8280040073BD5002083
:1032600000900598A169002342181946204601F0F4
:1032700065F9D8B9502080F31188BFF34F8FBFF3A1
:103280006F8FFEE714F8280F20F00100207022E075
:1032900094F8280040F0010084F828000598A06107
:1032A00028B1811813462046FFF778FF13E050201D
:1032B00080F31188BFF34F8FBFF36F8FFEE794F851
:1032C0002800810703D4204600F036FA03E020F0FE
:1032D000010084F82800002204A9286800F0C8FD35
:1032E000002889D109B030BD5C0000202DE9FC41E7
:1032F0000F46054600F070FB01A800F067F8044691
:10330000019818B101F088F8BDE8FC81254EAFB1F5
:1033100030690068D0B30027291B3A46306800F0B6
:103320008DFA01F079F80028EED11F494FF0805056
:103330000860BFF34F8FBFF36F8FE5E7A542EBD86F
:1033400001F06AF8F0682746C068C468201D00F0E4
:1033500063F994F82800410719D5A0692B46411953
:103360003A462046FFF71AFFA8B10020034601465F
:1033700000902A46204601F0E1F860B9502080F321
:103380001188BFF34F8FBFF36F8FFEE707E020F088
:10339000010084F82800216A20468847B4E7012705
:1033A000BAE700005C00002004ED00E00648416B35
:1033B000096829B1416BC968C96849688162704769
:1033C0004FF0FF31FAE700002000002070B50546FD
:1033D00000F0FAFE064E0446B068844203D200F0C4
:1033E00009F8012000E0002028602046B46070BD8C
:1033F0005C000020F8B5194D20E0C068C46806687C
:10340000201D00F009F9216A2046884794F8280019
:10341000400713D5A0693044B04206D924616060EA
:10342000211DE86800F030F908E00020034601465D
:1034300000903246204601F081F838B1E868016812
:103440000029DAD12969C5E90310F8BD502080F3BD
:103450001188BFF34F8FBFF36F8FFEE75C00002032
:1034600008484068401C4FF0500080F3118804D099
:10347000BFF34F8FBFF36F8FFEE7BFF34F8FBFF3E5
:103480006F8FFEE794000020074CE068016841B1AF
:10349000C0680021D0F80000FFF728FFFFF7A8FE62
:1034A000F3E701210020F7E75C0000202DE9F0415F
:1034B000044600F00DF994F9455004F1240609E0A2
:1034C000606A48B1304600F06FFF08B100F006FABC
:1034D0006D1E6DB2002DF3DC4FF0FF3684F84560B1
:1034E00000F016F900F0F4F894F9445004F11007D4
:1034F00009E0206948B1384600F056FF08B100F0F5
:10350000EDF96D1E6DB2002DF3DC84F84460BDE86A
:10351000F04100F0FDB800002DE9F041054600271C
:1035200000F05AFA324E306808B9FFF753FD70695F
:1035300005424ED1C5B3083568070ED005F0070027
:10354000C0F108000544680707D0502080F31188B7
:10355000BFF34F8FBFF36F8FFEE72DB370688542C7
:1035600037D82348183001460C6801E020460C4645
:103570006168A94202D221680029F7D131688C42E2
:1035800027D007682168016060680837411B10294F
:103590000FD96019420708D0502080F31188BFF37B
:1035A0004F8FBFF36F8FFEE713E041606560FFF759
:1035B000CFFD61687068401A7060B268904200D2B6
:1035C000B060706901430020C4E90001F068401C4C
:1035D000F06000F021FF780707D0502080F31188B9
:1035E000BFF34F8FBFF36F8FFEE73846BDE8F08122
:1035F0007400002010B5031F4FF080741C601B1F67
:1036000021F001011960191F024B0B601439403879
:103610000A6010BD61340008D0E9013201699A6086
:10362000D0E901235A604A68824201D182684A6027
:10363000002202610868401E0860086870470000A8
:10364000034B036003F15C0008608020106070474A
:1036500040080020044B036003F15C0008604FF455
:1036600080701060704700009C0A002000F1080183
:103670004FF0FF32C0E90112C16001610021016019
:10368000704700210161704730B50B685A1C02D0A9
:1036900000F1080202E0026904E02246546825684D
:1036A0009D42FAD953684B6099608A605160086105
:1036B0000168491C016030BD42684A6093688B60B4
:1036C00093685960916008610168491C0160704706
:1036D000502080F31188BFF34F8FBFF36F8F0A49DB
:1036E0004868401C486001280CD10848006810F068
:1036F000FF0F07D0502080F31188BFF34F8FBFF327
:103700006F8FFEE7704700009400002004ED00E09A
:103710000849486828B1401E486001D180F31188EB
:103720007047502080F31188BFF34F8FBFF36F8F26
:10373000FEE700009400002070B500282AD0164D46
:10374000A0F1080460686969084207D1502080F33D
:103750001188BFF34F8FBFF36F8FFEE722683AB136
:10376000502080F31188BFF34F8FBFF36F8FFEE7B8
:103770008843606000F030F96068696808446860F8
:103780002046FFF7E5FC2869401C2861BDE8704031
:1037900000F042BE70BD0000740000204FF0E02039
:1037A00000210161816105494FF47A720968B1FB1A
:1037B000F2F1491E41610721016170471C000020A0
:1037C00010B5FCF729FD114910280ED300F1E020B7
:1037D00090F8F0030A78904207D2502080F31188C5
:1037E000BFF34F8FBFF36F8FFEE70948006889680A
:1037F00000F4E060884207D9502080F31188BFF3BD
:103800004F8FBFF36F8FFEE710BD000094000020C4
:103810000CED00E010B5084B002200BF53F8324019
:103820001CB1521C082AF9D310BD43F8321003EB27
:10383000C201486010BD00002402002070B515468A
:103840000E460446FFF744FF94F944100020491C3B
:1038500001D184F8440094F94510491C01D184F841
:103860004500FFF755FFA06B28B92A46314604F101
:10387000240000F051F82046BDE87040FFF716BE66
:1038800010B5020014D00F48006B38B1502080F3FF
:103890001188BFF34F8FBFF36F8FFEE700F09CF8E6
:1038A00000211046FFF770FA00F0B6FD002807D19E
:1038B00005494FF080500860BFF34F8FBFF36F8F03
:1038C00010BD00002000002004ED00E002490A6A5B
:1038D0000260C96841607047200000200149012052
:1038E000C86170472000002010B50C4650B109494E
:1038F00009681831FFF7C8FE2046BDE810400121D5
:10390000FFF742BA502080F31188BFF34F8FBFF307
:103910006F8FFEE72000002070B514460D4668B199
:103920000A4909681831FFF7C7FE0CB14FF0FF359F
:1039300021462846BDE87040FFF726BA502080F3A4
:103940001188BFF34F8FBFF36F8FFEE72000002079
:1039500030B587B00024039405AA04A903A80494F1
:10396000FFF76EFEDDE903010094CDE901100023AD
:1039700015A11748059A00F07EFB164D0028E86255
:103980001FD000F0ABFD012809D0401C19D15020F8
:1039900080F31188BFF34F8FBFF36F8FFEE7502086
:1039A00080F31188BFF34F8FBFF36F8F4FF0FF305D
:1039B000A86201206861EC6007B0BDE8304000F00B
:1039C00045B807B030BD000049444C450000000038
:1039D0001D300008200000200248016B491C0163D3
:1039E0007047000020000020164810B5016B11B18F
:1039F0000121C16110BD0021C1610169124A01E0CC
:103A0000B9B1491E01EB810352F82330002BF7D0E6
:103A100001EB810302EB830202F1080453685B6847
:103A20005360A34201D15B685360DA6802600161B0
:103A300010BD502080F31188BFF34F8FBFF36F8FFD
:103A4000FEE7000020000020640200201CB526498B
:103A500008780190FF20087008788DF800009DF824
:103A600000009DF8002000F0F000904207D05020A8
:103A700080F31188BFF34F8FBFF36F8FFEE79DF880
:103A800000001A4C00F0500020700720A06005E0F4
:103A90009DF8002052008DF80020401E9DF8002067
:103AA0001206F5D4A060032807D0502080F31188B7
:103AB000BFF34F8FBFF36F8FFEE74FF44070A060EE
:103AC000019808700A48016841F4700101600168BA
:103AD00041F070410160FFF761FE00206060FCF77B
:103AE00065FB00201CBD000000E400E09400002005
:103AF00020ED00E010B5502080F31188BFF34F8F08
:103B0000BFF36F8F00F066FB18B104494FF080508F
:103B10000860002080F3118810BD000004ED00E073
:103B2000F8B517460E46050013D005FB06F05030D9
:103B3000FFF7F2FC04000AD0002084F8460004F1EC
:103B400050023B46314628460094FFF797FA20463C
:103B5000F8BD502080F31188BFF34F8FBFF36F8FF4
:103B6000FEE738B5049D18B153B1CAB181B120E068
:103B7000502080F31188BFF34F8FBFF36F8FFEE7A4
:103B8000502080F31188BFF34F8FBFF36F8FFEE794
:103B9000502080F31188BFF34F8FBFF36F8FFEE784
:103BA00039B1502080F31188BFF34F8FBFF36F8F6F
:103BB000FEE750241C46012384F846302B4600942F
:103BC000FFF75CFA204638BD70B50D46040025D0DD
:103BD000FFF77EFDD4E90F20216802FB0011A160F0
:103BE0000021A163216861600A46D4E90F01401EEB
:103BF00000FB0121E16021464FF0FF3001F8440F46
:103C0000487004F110008DB1FFF730FD04F124007D
:103C1000FFF72CFDFFF77CFD012070BD502080F3E5
:103C20001188BFF34F8FBFF36F8FFEE72169002923
:103C3000F0D000F0B9FB0028ECD004494FF08050E0
:103C40000860BFF34F8FBFF36F8FE3E704ED00E031
:103C50002DE9FF4782B01D468A464FF00008040058
:103C600003D0BAF1000F08D011E0502080F3118882
:103C7000BFF34F8FBFF36F8FFEE7206C38B150203A
:103C800080F31188BFF34F8FBFF36F8FFEE7022DD4
:103C90000AD1E06B012807D0502080F31188BFF3D0
:103CA0004F8FBFF36F8FFEE700F080FA3F4F4FF06A
:103CB00000094FF0805648B9049838B1502080F37D
:103CC0001188BFF34F8FBFF36F8FFEE7FFF700FD43
:103CD000A06BE16B884207D3022D05D00498D0B1C8
:103CE000B8F1000F1AD01EE02A4651462046FFF7D1
:103CF00020F9616A19B104F1240000F055FB20B1EC
:103D00003E60BFF34F8FBFF36F8FFFF701FD0120C0
:103D100006B0BDE8F087FFF7FBFC22E06846FFF73E
:103D2000D5FD4FF00108FFF7F3FCFFF755FEFFF755
:103D3000CFFC94F94400401C01D184F8449094F9DC
:103D40004500401C01D184F84590FFF7E1FC04A92F
:103D5000684600F029F930B12046FFF7A7FB00F0D4
:103D60005BFB0020D4E7FFF7B3FCA06BE16B88425C
:103D700013D1FFF7CDFC04F110000499FFF7B4FD57
:103D80002046FFF793FB00F047FB00289ED13E60E2
:103D9000BFF34F8FBFF36F8F98E7FFF7B9FC204653
:103DA000FFF784FB00F038FB90E7000004ED00E033
:103DB0002DE9F0471F4690468946040003D0B9F12B
:103DC000000F08D011E0502080F31188BFF34F8F0F
:103DD000BFF36F8FFEE7206C38B1502080F311885D
:103DE000BFF34F8FBFF36F8FFEE7022F0AD1E06B57
:103DF000012807D0502080F31188BFF34F8FBFF305
:103E00006F8FFEE7FFF7DCFC5020EFF3118680F3A5
:103E10001188BFF34F8FBFF36F8FA06BE16B8842A8
:103E200006D3022F04D0002086F31188BDE8F08766
:103E300094F94550A06B3A4649462046FFF779F879
:103E4000681C04D06D1C84F845500120ECE7606AC2
:103E50000028FAD004F1240000F0A6FA0028F4D0DB
:103E6000B8F1000FF1D00121C8F80010EDE7000013
:103E70002DE9F747002683B08A46040003D0BAF143
:103E8000000F08D011E0502080F31188BFF34F8F4E
:103E9000BFF36F8FFEE7206C38B1502080F311889C
:103EA000BFF34F8FBFF36F8FFEE700F07FF9DFF8AE
:103EB000F4804FF000094FF0805748B9059838B1A9
:103EC000502080F31188BFF34F8FBFF36F8FFEE751
:103ED000FFF7FEFBA56BC5B151462046FFF716F86C
:103EE0006D1EA563206950B104F1100000F05CFA6A
:103EF00028B1C8F80070BFF34F8FBFF36F8FFFF783
:103F000007FC012006B0BDE8F087059808B11EB196
:103F100006E0FFF7FDFB27E06846FFF7D7FC012628
:103F2000FFF7F6FBFFF758FDFFF7D2FB94F94400CB
:103F3000401C01D184F8449094F94500401C01D103
:103F400084F84590FFF7E4FB05A9684600F02CF8DB
:103F5000002820460AD0FFF7A9FA00F05DFA2046B3
:103F6000FFF738F90028B3D00020CBE7FFF732F98C
:103F700090B104F124000599FFF7B6FC2046FFF745
:103F800095FA00F049FA0028A2D1C8F80070BFF3F2
:103F90004F8FBFF36F8F9BE72046FFF787FA00F044
:103FA0003BFA95E704ED00E02DE9F0410C460500F1
:103FB00011D0C4B1FFF78CFB174BDA686E6820682C
:103FC000911B471C17D02F681B6A9F4219D096423D
:103FD00017D8012410E0502080F31188BFF34F8FD1
:103FE000BFF36F8FFEE7502080F31188BFF34F8F30
:103FF000BFF36F8FFEE70024FFF78AFB2046BDE882
:10400000F081884205D9401A20602846FFF75EFCFF
:10401000F1E700202060DCE7200000202DE9FF5FB1
:104020008346DDE90E87994616468A469000FFF7DB
:1040300073FA05001CD05C20FFF76EFA040014D060
:104040000020256384F85900CDE90240CDE90087BE
:104050004B46324651465846FFF722F82046FEF7B7
:10406000C1FE012004B0BDE8F09F2846FFF764FBC5
:104070004FF0FF30F6E7F0B585B0DDE90B640A9D3F
:10408000A6B1DCB15C2700972663022684F859604C
:10409000002604AFCDE90246CDE90057FFF700F84E
:1040A0002046FEF79FFE049805B0F0BD502080F337
:1040B0001188BFF34F8FBFF36F8FFEE7502080F35F
:1040C0001188BFF34F8FBFF36F8FFEE72DE9F041EB
:1040D0001F4690460D46012690B10446FFF7F8FAB8
:1040E0000FB1606D386094F85800022184F85810C0
:1040F000B8F1050F19D2DFE808F0230B0E141200F7
:10410000502080F31188BFF34F8FBFF36F8FFEE70E
:10411000616D294301E0616D491C616510E0022871
:1041200001D065650CE0002634E0616D491C07D0C4
:10413000502080F31188BFF34F8FBFF36F8FFEE7DE
:10414000012827D1201DFFF767FA154DE06A29697C
:10415000884200D92861134900EB800001EB800000
:10416000211DFFF7A9FAA06A38B1502080F3118809
:10417000BFF34F8FBFF36F8FFEE7E06A2968C96A0C
:10418000884207D908494FF080500860BFF34F8F2D
:10419000BFF36F8FFFF7BCFA3046BDE8F081000037
:1041A000200000206402002004ED00E00548416981
:1041B00019B1006B18B10020704701207047022030
:1041C00070470000200000200148C06870470000D0
:1041D000200000202DE9F0412E4C0027206B28B153
:1041E000A069401CA0613846BDE8F081E668761CF5
:1041F000E66013D1606B006838B1502080F31188FD
:10420000BFF34F8FBFF36F8FFEE7606BA16B6163EE
:10421000A063206A401C2062FFF7C8F8A06ADFF89C
:104220007880864209D3606B0068A0B1606BC0687B
:10423000C5686868864211D2A0622068C06A00EB37
:10424000800158F82100012800D90127E0690028E1
:10425000C9D00127C7E74FF0FF30EDE7281DFFF772
:10426000DBF9A86A18B105F11800FFF7D5F9E86A7B
:104270002169884200D9206100EB800108EB8100B0
:10428000291DFFF719FAE86A2168C96A8842CAD36A
:104290000127C8E720000020640200202DE9F0413A
:1042A0001E46154688460746FFF712FA1C4C206842
:1042B00090F85800022814D02068416DB943416538
:1042C0002168012081F858005EB101213046FEF7D7
:1042D0005BFD14494FF080500860BFF34F8FBFF370
:1042E0006F8FFFF715FAFFF7F3F915B12068406DEE
:1042F0002860206890F85800022801D0002505E0C9
:104300002068416D21EA08014165012521680020EE
:1043100081F85800FFF7FCF92846BDE8F08100005D
:104320002000002004ED00E070B504004FF0000113
:1043300033D01B4D2868844207D0502080F3118869
:10434000BFF34F8FBFF36F8FFEE7206D38B1401E74
:104350002065E36CE26A9A421FD040B11DE0502014
:1043600080F31188BFF34F8FBFF36F8FFEE7201DDF
:10437000FFF752F9E06CE062C0F13800A061E06A3A
:104380002969884200D92861064900EB800001EBC9
:104390008000211DFFF790F90121084670BD000043
:1043A000200000206402002070B5C068C46854B1C9
:1043B00004F118000646FFF72FF9144D286B50B191
:1043C0003146134815E0502080F31188BFF34F8F1A
:1043D000BFF36F8FFEE7201DFFF71EF9E06A296922
:1043E000884200D928610B4900EB800001EB800076
:1043F000211DFFF761F9E06A2968C96A884202D97C
:104400000120E86170BD002070BD00002000002088
:10441000EC060020640200202DE9F0472C4D00241A
:104420002746286B38B1FFF753F9286B401E2863E5
:10443000286B40B146E0502080F31188BFF34F8FC6
:10444000BFF36F8FFEE7A968224E0120D1B3A6F516
:10445000916980463068E0B1F068C46804F11800E2
:10446000FFF7DAF8201DFFF7D7F8E06A29698842DC
:1044700000D9286100EB800109EB8100211DFFF7C5
:104480001BF9E06A2968C96A8842E3D3C5F81C8031
:10449000E0E70CB1FEF78AFFAC694CB14FEA0806C1
:1044A000FFF798FE00B1EE61641EF9D10020A8610B
:1044B000E86938B10849012738070860BFF34F8F12
:1044C000BFF36F8FFFF724F93846BDE8F08700008F
:1044D00020000020EC06002004ED00E010B586B0BE
:1044E000FEF7E8FC114C2068B8B10020039004905E
:1044F00005AA04A903A8FFF7ADF8DDE9032102200E
:104500008DE8070000230AA10B48059AFFF7B3FDC9
:10451000606010B106B0012010BD502080F31188FA
:10452000BFF34F8FBFF36F8FFEE700005C000020EA
:10453000546D722053766300893400082DE9FF41E1
:104540001E46134602000A9D4FF0000016D0144C80
:104550002768002F0FD0CDE900130292062917DA41
:10456000FFF724FE02284FF000030FD00022694617
:104570002068FFF76DFB04B0BDE8F081502080F3A8
:104580001188BFF34F8FBFF36F8FFEE72A46EEE728
:104590000023324669463846FFF70AFCEBE7000085
:1045A0005C000020F44D0008000000000000000046
:1045B00000000000000000000002000018000000E1
:1045C00000000000000000000102020304050607CD
:1045D00008090A0B0C0D0E0F10100000000000005F
:1045E00000000102030406070809000000000102A0
:1045F00003040000000000000000000000000000B4
:10460000000000FE020202020202003F20202020E1
:10461000202000000000000000000000000000005A
:10462000000000FE020202020202003F20202020C1
:10463000202000FE020202020202003F2020202071
:10464000202000FE020202020202003F2020202061
:10465000202000FE020202020202003F2020202051
:10466000202000FE020202020202003F2020202041
:10467000202000FE020202020202003F2020202031
:1046800020200000000000000000000000000000EA
:10469000000000000000000000000000000000001A
:1046A000000000000000000000000000000000000A
:1046B000000000FE020202020202003F2020202031
:1046C000202000FE020202020202003F20202020E1
:1046D000202000FE020202020202003F20202020D1
:1046E000202000FE020202020202003F20202020C1
:1046F000202000FE020202020202003F20202020B1
:10470000202000FE020202020202003F20202020A0
:10471000202000FE020202020202003F2020202090
:10472000202000FE020202020202003F2020202080
:10473000202000FE020202020202003F2020202070
:10474000202000FE020202020202003F2020202060
:10475000202000FE020202020202003F2020202050
:10476000202000FE020202020202003F2020202040
:10477000202000FE020202020202003F2020202030
:10478000202000FE020202020202003F2020202020
:10479000202000FE020202020202003F2020202010
:1047A000202000FE020202020202003F2020202000
:1047B00020200000000000000000000000000000B9
:1047C00000000000000000000000000000000000E9
:1047D00000000000000000000000000000000000D9
:1047E00000000000000000000000000000000000C9
:1047F00000000000000000000000000000000000B9
:104800000000000000F8000000000000003300007D
:10481000000000100C02100C02000000000000005C
:1048200000000040C07840C0780000043F04043F0E
:10483000040000708888FC08300000182020FF2148
:104840001E00F008F0806018000000310C031E21EB
:104850001E0000F00888700000001E21232C19277C
:10486000211000120E0000000000000000000000F7
:104870000000000000E018040200000000071820FB
:10488000400000020418E00000000040201807006B
:104890000000404080F0804040000202010F010211
:1048A000020000000000E0000000000101010F0113
:1048B00001010000000000000000009070000000F6
:1048C00000000000000000000000000101010101E3
:1048D0000100000000000000000000303000000077
:1048E000000000000000C03804000060180700004D
:1048F000000000E010080810E000000F1020201059
:104900000F0000001010F8000000000020203F20E1
:104910002000007008080808F00000302824222138
:10492000300000300808088870000018202121227B
:104930001C000000804030F8000000060524243FE1
:10494000242400F8888888080800001920202011F5
:104950000E0000E0108888900000000F1120202039
:104960001F0000180808886818000000003E0100B9
:1049700000000070880808887000001C2221212295
:104980001C0000F008080810E000000112222211AB
:104990000F00000000C0C000000000000030300028
:1049A00000000000008000000000000000E00000A7
:1049B00000000000804020100800000102040810E0
:1049C000200000404040404040000002020202023D
:1049D000020000081020408000000020100804029F
:1049E000010000704808088870000000003037009F
:1049F0000000C030C828E810E000071827282F283A
:104A000017000000C038E0000000203C230202270D
:104A1000382008F8888888700000203F2020201166
:104A20000E00C030080808083800071820202010A1
:104A3000080008F808080810E000203F2020201097
:104A40000F0008F88888E8081000203F2020232065
:104A5000180008F88888E8081000203F20000300AC
:104A60000000C03008080838000007182020221E67
:104A7000020008F808000008F808203F2101012181
:104A80003F20000808F8080800000020203F2020F0
:104A9000000000000808F8080800C08080807F003F
:104AA000000008F888C028180800203F2001263898
:104AB000200008F8080000000000203F20202020EF
:104AC000300008F8F800F8F80800203F013E013FE8
:104AD000200008F830C00008F808203F2000071820
:104AE0003F00E01008080810E0000F102020201000
:104AF0000F0008F808080808F000203F2101010114
:104B00000000E01008080810E0000F1028283050BE
:104B10004F0008F8888888887000203F2000030C28
:104B20003020007088080808380000382021212231
:104B30001C00180808F8080818000000203F200092
:104B4000000008F808000008F808001F20202020B6
:104B50001F000878880000C83808000007380E01D8
:104B6000000008F800F800F8080000033E013E03CA
:104B70000000081868808068180820302C03032C77
:104B800030200838C800C83808000000203F200046
:104B9000000010080808C838080020382621202006
:104BA0001800000000FE020202000000007F4040EA
:104BB0004000000438C0000000000000000106387A
:104BC000C00000020202FE000000004040407F00E2
:104BD00000000000040202040000000000000000C9
:104BE00000000000000000000000808080808080C5
:104BF00080800002020400000000000000000000AD
:104C00000000000080808000000000192424123F72
:104C1000200010F0008080000000003F11202011D3
:104C20000E000000008080800000000E1120202077
:104C30001100000080808090F000001F20202010D4
:104C40003F200000808080800000001F2424242456
:104C50001700008080E0909020000020203F20205E
:104C600000000000808080808000006B949494930A
:104C7000600010F0008080800000203F21000020B4
:104C80003F2000809898000000000020203F202056
:104C90000000000000809898000000C08080807FA5
:104CA000000010F0000080808000203F24062930A2
:104CB0002000001010F8000000000020203F2020FD
:104CC00000008080808080808000203F20003F2086
:104CD000003F8080008080800000203F2100002075
:104CE0003F200000808080800000001F20202020C6
:104CF0001F00808000808000000080FF9120201134
:104D00000E000000008080008000000E1120209125
:104D1000FF80808080008080800020203F21200054
:104D2000010000008080808080000033242424243F
:104D30001900008080E0808000000000001F20201B
:104D400010008080000000808000001F20202010C4
:104D50003F20808080008080800000030C300C03A6
:104D600000008080008080008080010E300C0738B9
:104D7000060100808080008080000020310E2E31EE
:104D80002000808080000080808000818678180666
:104D9000010000808080808080000021302C222152
:104DA00030000000000000FC020200000000013E94
:104DB000404000000000FF00000000000000FF0075
:104DC00000000202FC000000000040403E01000024
:104DD00000000002010202040200000000000000C6
:104DE00000000000000000000000000000000000C3
:104DF0000000000064656661756C745461736B003B
:104E0000204E000800000020B0000000280100082B
:104E1000D04E0008B0000020402C000044010008E3
:104E20000000000000000000000000000000000082
:104E300001000000100000000000000000127A00D5
:104E40000000000000000000000000000000000062
:104E50000000000000000000000000000000000052
:104E60000000000000000000000000000000000042
:104E70000000000000000000000000000000000032
:104E80000000000000000000000000000000000022
:104E90000000000000000000000000000000000012
:104EA0000000000000000000000000000000000002
:104EB0000000000000000000AAAAAAAA000000004A
:104EC00000000000B00000204C01002094010020F0
:04000005080000ED02
:00000001FF
